{
  "contractName": "purchaseContract",
  "abi": [
    {
      "inputs": [
        {
          "internalType": "uint256",
          "name": "",
          "type": "uint256"
        }
      ],
      "name": "clients",
      "outputs": [
        {
          "internalType": "uint256",
          "name": "idclient",
          "type": "uint256"
        },
        {
          "internalType": "string",
          "name": "name",
          "type": "string"
        },
        {
          "internalType": "string",
          "name": "pass",
          "type": "string"
        }
      ],
      "stateMutability": "view",
      "type": "function",
      "constant": true
    },
    {
      "inputs": [
        {
          "internalType": "uint256",
          "name": "",
          "type": "uint256"
        }
      ],
      "name": "comics",
      "outputs": [
        {
          "internalType": "uint256",
          "name": "idcomic",
          "type": "uint256"
        },
        {
          "internalType": "int256",
          "name": "price",
          "type": "int256"
        },
        {
          "internalType": "string",
          "name": "name_comic",
          "type": "string"
        },
        {
          "internalType": "string",
          "name": "author",
          "type": "string"
        },
        {
          "internalType": "uint256",
          "name": "publish_date",
          "type": "uint256"
        },
        {
          "internalType": "int256",
          "name": "ISBN",
          "type": "int256"
        },
        {
          "components": [
            {
              "internalType": "uint256",
              "name": "idclient",
              "type": "uint256"
            },
            {
              "internalType": "string",
              "name": "name",
              "type": "string"
            },
            {
              "internalType": "string",
              "name": "pass",
              "type": "string"
            }
          ],
          "internalType": "struct purchaseContract.Client",
          "name": "owner",
          "type": "tuple"
        }
      ],
      "stateMutability": "view",
      "type": "function",
      "constant": true
    },
    {
      "inputs": [],
      "name": "nextIdClients",
      "outputs": [
        {
          "internalType": "uint256",
          "name": "",
          "type": "uint256"
        }
      ],
      "stateMutability": "view",
      "type": "function",
      "constant": true
    },
    {
      "inputs": [],
      "name": "nextIdPurchase",
      "outputs": [
        {
          "internalType": "uint256",
          "name": "",
          "type": "uint256"
        }
      ],
      "stateMutability": "view",
      "type": "function",
      "constant": true
    },
    {
      "inputs": [],
      "name": "nextidComic",
      "outputs": [
        {
          "internalType": "uint256",
          "name": "",
          "type": "uint256"
        }
      ],
      "stateMutability": "view",
      "type": "function",
      "constant": true
    },
    {
      "inputs": [
        {
          "internalType": "uint256",
          "name": "",
          "type": "uint256"
        }
      ],
      "name": "purchases",
      "outputs": [
        {
          "internalType": "uint256",
          "name": "idpurchase",
          "type": "uint256"
        },
        {
          "internalType": "uint256",
          "name": "purchase_date",
          "type": "uint256"
        },
        {
          "components": [
            {
              "internalType": "uint256",
              "name": "idcomic",
              "type": "uint256"
            },
            {
              "internalType": "int256",
              "name": "price",
              "type": "int256"
            },
            {
              "internalType": "string",
              "name": "name_comic",
              "type": "string"
            },
            {
              "internalType": "string",
              "name": "author",
              "type": "string"
            },
            {
              "internalType": "uint256",
              "name": "publish_date",
              "type": "uint256"
            },
            {
              "internalType": "int256",
              "name": "ISBN",
              "type": "int256"
            },
            {
              "components": [
                {
                  "internalType": "uint256",
                  "name": "idclient",
                  "type": "uint256"
                },
                {
                  "internalType": "string",
                  "name": "name",
                  "type": "string"
                },
                {
                  "internalType": "string",
                  "name": "pass",
                  "type": "string"
                }
              ],
              "internalType": "struct purchaseContract.Client",
              "name": "owner",
              "type": "tuple"
            }
          ],
          "internalType": "struct purchaseContract.Comic",
          "name": "item",
          "type": "tuple"
        },
        {
          "components": [
            {
              "internalType": "uint256",
              "name": "idclient",
              "type": "uint256"
            },
            {
              "internalType": "string",
              "name": "name",
              "type": "string"
            },
            {
              "internalType": "string",
              "name": "pass",
              "type": "string"
            }
          ],
          "internalType": "struct purchaseContract.Client",
          "name": "owner",
          "type": "tuple"
        },
        {
          "components": [
            {
              "internalType": "uint256",
              "name": "idclient",
              "type": "uint256"
            },
            {
              "internalType": "string",
              "name": "name",
              "type": "string"
            },
            {
              "internalType": "string",
              "name": "pass",
              "type": "string"
            }
          ],
          "internalType": "struct purchaseContract.Client",
          "name": "buyer",
          "type": "tuple"
        }
      ],
      "stateMutability": "view",
      "type": "function",
      "constant": true
    },
    {
      "inputs": [
        {
          "internalType": "int256",
          "name": "_price",
          "type": "int256"
        },
        {
          "internalType": "string",
          "name": "_name_comic",
          "type": "string"
        },
        {
          "internalType": "string",
          "name": "_author",
          "type": "string"
        },
        {
          "internalType": "uint256",
          "name": "_publish_date",
          "type": "uint256"
        },
        {
          "internalType": "int256",
          "name": "_isbn",
          "type": "int256"
        },
        {
          "internalType": "uint256",
          "name": "_owner_id",
          "type": "uint256"
        }
      ],
      "name": "createComic",
      "outputs": [],
      "stateMutability": "nonpayable",
      "type": "function"
    },
    {
      "inputs": [
        {
          "internalType": "uint256",
          "name": "id",
          "type": "uint256"
        }
      ],
      "name": "getComic",
      "outputs": [
        {
          "components": [
            {
              "internalType": "uint256",
              "name": "idcomic",
              "type": "uint256"
            },
            {
              "internalType": "int256",
              "name": "price",
              "type": "int256"
            },
            {
              "internalType": "string",
              "name": "name_comic",
              "type": "string"
            },
            {
              "internalType": "string",
              "name": "author",
              "type": "string"
            },
            {
              "internalType": "uint256",
              "name": "publish_date",
              "type": "uint256"
            },
            {
              "internalType": "int256",
              "name": "ISBN",
              "type": "int256"
            },
            {
              "components": [
                {
                  "internalType": "uint256",
                  "name": "idclient",
                  "type": "uint256"
                },
                {
                  "internalType": "string",
                  "name": "name",
                  "type": "string"
                },
                {
                  "internalType": "string",
                  "name": "pass",
                  "type": "string"
                }
              ],
              "internalType": "struct purchaseContract.Client",
              "name": "owner",
              "type": "tuple"
            }
          ],
          "internalType": "struct purchaseContract.Comic",
          "name": "",
          "type": "tuple"
        }
      ],
      "stateMutability": "view",
      "type": "function",
      "constant": true
    },
    {
      "inputs": [
        {
          "internalType": "uint256",
          "name": "_purchase_date",
          "type": "uint256"
        },
        {
          "internalType": "uint256",
          "name": "_item_id",
          "type": "uint256"
        },
        {
          "internalType": "uint256",
          "name": "_owner_id",
          "type": "uint256"
        },
        {
          "internalType": "uint256",
          "name": "_buyer_id",
          "type": "uint256"
        }
      ],
      "name": "createPurchase",
      "outputs": [],
      "stateMutability": "nonpayable",
      "type": "function"
    },
    {
      "inputs": [
        {
          "internalType": "string",
          "name": "_name",
          "type": "string"
        },
        {
          "internalType": "string",
          "name": "_pass",
          "type": "string"
        }
      ],
      "name": "createClient",
      "outputs": [],
      "stateMutability": "nonpayable",
      "type": "function"
    },
    {
      "inputs": [
        {
          "internalType": "uint256",
          "name": "id",
          "type": "uint256"
        }
      ],
      "name": "getPurchase",
      "outputs": [
        {
          "components": [
            {
              "internalType": "uint256",
              "name": "idpurchase",
              "type": "uint256"
            },
            {
              "internalType": "uint256",
              "name": "purchase_date",
              "type": "uint256"
            },
            {
              "components": [
                {
                  "internalType": "uint256",
                  "name": "idcomic",
                  "type": "uint256"
                },
                {
                  "internalType": "int256",
                  "name": "price",
                  "type": "int256"
                },
                {
                  "internalType": "string",
                  "name": "name_comic",
                  "type": "string"
                },
                {
                  "internalType": "string",
                  "name": "author",
                  "type": "string"
                },
                {
                  "internalType": "uint256",
                  "name": "publish_date",
                  "type": "uint256"
                },
                {
                  "internalType": "int256",
                  "name": "ISBN",
                  "type": "int256"
                },
                {
                  "components": [
                    {
                      "internalType": "uint256",
                      "name": "idclient",
                      "type": "uint256"
                    },
                    {
                      "internalType": "string",
                      "name": "name",
                      "type": "string"
                    },
                    {
                      "internalType": "string",
                      "name": "pass",
                      "type": "string"
                    }
                  ],
                  "internalType": "struct purchaseContract.Client",
                  "name": "owner",
                  "type": "tuple"
                }
              ],
              "internalType": "struct purchaseContract.Comic",
              "name": "item",
              "type": "tuple"
            },
            {
              "components": [
                {
                  "internalType": "uint256",
                  "name": "idclient",
                  "type": "uint256"
                },
                {
                  "internalType": "string",
                  "name": "name",
                  "type": "string"
                },
                {
                  "internalType": "string",
                  "name": "pass",
                  "type": "string"
                }
              ],
              "internalType": "struct purchaseContract.Client",
              "name": "owner",
              "type": "tuple"
            },
            {
              "components": [
                {
                  "internalType": "uint256",
                  "name": "idclient",
                  "type": "uint256"
                },
                {
                  "internalType": "string",
                  "name": "name",
                  "type": "string"
                },
                {
                  "internalType": "string",
                  "name": "pass",
                  "type": "string"
                }
              ],
              "internalType": "struct purchaseContract.Client",
              "name": "buyer",
              "type": "tuple"
            }
          ],
          "internalType": "struct purchaseContract.Purchase",
          "name": "",
          "type": "tuple"
        }
      ],
      "stateMutability": "view",
      "type": "function",
      "constant": true
    },
    {
      "inputs": [
        {
          "internalType": "uint256",
          "name": "id",
          "type": "uint256"
        }
      ],
      "name": "getClient",
      "outputs": [
        {
          "components": [
            {
              "internalType": "uint256",
              "name": "idclient",
              "type": "uint256"
            },
            {
              "internalType": "string",
              "name": "name",
              "type": "string"
            },
            {
              "internalType": "string",
              "name": "pass",
              "type": "string"
            }
          ],
          "internalType": "struct purchaseContract.Client",
          "name": "",
          "type": "tuple"
        }
      ],
      "stateMutability": "view",
      "type": "function",
      "constant": true
    }
  ],
  "bytecode": "0x608060405234801561001057600080fd5b50612ccd806100206000396000f3fe608060405234801561001057600080fd5b50600436106100b45760003560e01c80636f3ffbb9116100715780636f3ffbb91461018d5780637a80dc1d146101ab5780638392fe31146101e1578063d0068f8014610215578063e32bf8e414610245578063f88af21d14610261576100b4565b80632cb9d0e8146100b95780632df8b736146100d75780633742a9f7146100f357806347ac33ee1461012357806351a1e8f0146101535780635b02c9221461016f575b600080fd5b6100c1610293565b6040516100ce9190612058565b60405180910390f35b6100f160048036038101906100ec91906121cd565b610299565b005b61010d60048036038101906101089190612271565b610331565b60405161011a91906124ca565b60405180910390f35b61013d60048036038101906101389190612271565b6108a7565b60405161014a9190612596565b60405180910390f35b61016d600480360381019061016891906125e4565b610b71565b005b610177610dde565b6040516101849190612058565b60405180910390f35b610195610de4565b6040516101a29190612058565b60405180910390f35b6101c560048036038101906101c09190612271565b610dea565b6040516101d89796959493929190612759565b60405180910390f35b6101fb60048036038101906101f69190612271565b611084565b60405161020c9594939291906127dd565b60405180910390f35b61022f600480360381019061022a9190612271565b6115d2565b60405161023c9190612845565b60405180910390f35b61025f600480360381019061025a9190612867565b61173c565b005b61027b60048036038101906102769190612271565b611e50565b60405161028a939291906128ce565b60405180910390f35b60035481565b60046040518060600160405280600560008154809291906102b990612942565b9190505581526020018481526020018381525090806001815401808255809150506001900390600052602060002090600302016000909190919091506000820151816000015560208201518160010190816103149190612b96565b50604082015181600201908161032a9190612b96565b5050505050565b610339611f9a565b6002828154811061034d5761034c612c68565b5b90600052602060002090601102016040518060a00160405290816000820154815260200160018201548152602001600282016040518060e001604052908160008201548152602001600182015481526020016002820180546103ae906129b9565b80601f01602080910402602001604051908101604052809291908181526020018280546103da906129b9565b80156104275780601f106103fc57610100808354040283529160200191610427565b820191906000526020600020905b81548152906001019060200180831161040a57829003601f168201915b50505050508152602001600382018054610440906129b9565b80601f016020809104026020016040519081016040528092919081815260200182805461046c906129b9565b80156104b95780601f1061048e576101008083540402835291602001916104b9565b820191906000526020600020905b81548152906001019060200180831161049c57829003601f168201915b5050505050815260200160048201548152602001600582015481526020016006820160405180606001604052908160008201548152602001600182018054610500906129b9565b80601f016020809104026020016040519081016040528092919081815260200182805461052c906129b9565b80156105795780601f1061054e57610100808354040283529160200191610579565b820191906000526020600020905b81548152906001019060200180831161055c57829003601f168201915b50505050508152602001600282018054610592906129b9565b80601f01602080910402602001604051908101604052809291908181526020018280546105be906129b9565b801561060b5780601f106105e05761010080835404028352916020019161060b565b820191906000526020600020905b8154815290600101906020018083116105ee57829003601f168201915b505050505081525050815250508152602001600b820160405180606001604052908160008201548152602001600182018054610646906129b9565b80601f0160208091040260200160405190810160405280929190818152602001828054610672906129b9565b80156106bf5780601f10610694576101008083540402835291602001916106bf565b820191906000526020600020905b8154815290600101906020018083116106a257829003601f168201915b505050505081526020016002820180546106d8906129b9565b80601f0160208091040260200160405190810160405280929190818152602001828054610704906129b9565b80156107515780601f1061072657610100808354040283529160200191610751565b820191906000526020600020905b81548152906001019060200180831161073457829003601f168201915b5050505050815250508152602001600e820160405180606001604052908160008201548152602001600182018054610788906129b9565b80601f01602080910402602001604051908101604052809291908181526020018280546107b4906129b9565b80156108015780601f106107d657610100808354040283529160200191610801565b820191906000526020600020905b8154815290600101906020018083116107e457829003601f168201915b5050505050815260200160028201805461081a906129b9565b80601f0160208091040260200160405190810160405280929190818152602001828054610846906129b9565b80156108935780601f1061086857610100808354040283529160200191610893565b820191906000526020600020905b81548152906001019060200180831161087657829003601f168201915b505050505081525050815250509050919050565b6108af611fdb565b600082815481106108c3576108c2612c68565b5b90600052602060002090600902016040518060e00160405290816000820154815260200160018201548152602001600282018054610900906129b9565b80601f016020809104026020016040519081016040528092919081815260200182805461092c906129b9565b80156109795780601f1061094e57610100808354040283529160200191610979565b820191906000526020600020905b81548152906001019060200180831161095c57829003601f168201915b50505050508152602001600382018054610992906129b9565b80601f01602080910402602001604051908101604052809291908181526020018280546109be906129b9565b8015610a0b5780601f106109e057610100808354040283529160200191610a0b565b820191906000526020600020905b8154815290600101906020018083116109ee57829003601f168201915b5050505050815260200160048201548152602001600582015481526020016006820160405180606001604052908160008201548152602001600182018054610a52906129b9565b80601f0160208091040260200160405190810160405280929190818152602001828054610a7e906129b9565b8015610acb5780601f10610aa057610100808354040283529160200191610acb565b820191906000526020600020905b815481529060010190602001808311610aae57829003601f168201915b50505050508152602001600282018054610ae4906129b9565b80601f0160208091040260200160405190810160405280929190818152602001828054610b10906129b9565b8015610b5d5780601f10610b3257610100808354040283529160200191610b5d565b820191906000526020600020905b815481529060010190602001808311610b4057829003601f168201915b505050505081525050815250509050919050565b60006040518060e0016040528060016000815480929190610b9190612942565b91905055815260200188815260200187815260200186815260200185815260200184815260200160048481548110610bcc57610bcb612c68565b5b906000526020600020906003020160405180606001604052908160008201548152602001600182018054610bff906129b9565b80601f0160208091040260200160405190810160405280929190818152602001828054610c2b906129b9565b8015610c785780601f10610c4d57610100808354040283529160200191610c78565b820191906000526020600020905b815481529060010190602001808311610c5b57829003601f168201915b50505050508152602001600282018054610c91906129b9565b80601f0160208091040260200160405190810160405280929190818152602001828054610cbd906129b9565b8015610d0a5780601f10610cdf57610100808354040283529160200191610d0a565b820191906000526020600020905b815481529060010190602001808311610ced57829003601f168201915b505050505081525050815250908060018154018082558091505060019003906000526020600020906009020160009091909190915060008201518160000155602082015181600101556040820151816002019081610d689190612b96565b506060820151816003019081610d7e9190612b96565b506080820151816004015560a0820151816005015560c082015181600601600082015181600001556020820151816001019081610dbb9190612b96565b506040820151816002019081610dd19190612b96565b5050505050505050505050565b60055481565b60015481565b60008181548110610dfa57600080fd5b9060005260206000209060090201600091509050806000015490806001015490806002018054610e29906129b9565b80601f0160208091040260200160405190810160405280929190818152602001828054610e55906129b9565b8015610ea25780601f10610e7757610100808354040283529160200191610ea2565b820191906000526020600020905b815481529060010190602001808311610e8557829003601f168201915b505050505090806003018054610eb7906129b9565b80601f0160208091040260200160405190810160405280929190818152602001828054610ee3906129b9565b8015610f305780601f10610f0557610100808354040283529160200191610f30565b820191906000526020600020905b815481529060010190602001808311610f1357829003601f168201915b5050505050908060040154908060050154908060060160405180606001604052908160008201548152602001600182018054610f6b906129b9565b80601f0160208091040260200160405190810160405280929190818152602001828054610f97906129b9565b8015610fe45780601f10610fb957610100808354040283529160200191610fe4565b820191906000526020600020905b815481529060010190602001808311610fc757829003601f168201915b50505050508152602001600282018054610ffd906129b9565b80601f0160208091040260200160405190810160405280929190818152602001828054611029906129b9565b80156110765780601f1061104b57610100808354040283529160200191611076565b820191906000526020600020905b81548152906001019060200180831161105957829003601f168201915b505050505081525050905087565b6002818154811061109457600080fd5b9060005260206000209060110201600091509050806000015490806001015490806002016040518060e001604052908160008201548152602001600182015481526020016002820180546110e7906129b9565b80601f0160208091040260200160405190810160405280929190818152602001828054611113906129b9565b80156111605780601f1061113557610100808354040283529160200191611160565b820191906000526020600020905b81548152906001019060200180831161114357829003601f168201915b50505050508152602001600382018054611179906129b9565b80601f01602080910402602001604051908101604052809291908181526020018280546111a5906129b9565b80156111f25780601f106111c7576101008083540402835291602001916111f2565b820191906000526020600020905b8154815290600101906020018083116111d557829003601f168201915b5050505050815260200160048201548152602001600582015481526020016006820160405180606001604052908160008201548152602001600182018054611239906129b9565b80601f0160208091040260200160405190810160405280929190818152602001828054611265906129b9565b80156112b25780601f10611287576101008083540402835291602001916112b2565b820191906000526020600020905b81548152906001019060200180831161129557829003601f168201915b505050505081526020016002820180546112cb906129b9565b80601f01602080910402602001604051908101604052809291908181526020018280546112f7906129b9565b80156113445780601f1061131957610100808354040283529160200191611344565b820191906000526020600020905b81548152906001019060200180831161132757829003601f168201915b505050505081525050815250509080600b016040518060600160405290816000820154815260200160018201805461137b906129b9565b80601f01602080910402602001604051908101604052809291908181526020018280546113a7906129b9565b80156113f45780601f106113c9576101008083540402835291602001916113f4565b820191906000526020600020905b8154815290600101906020018083116113d757829003601f168201915b5050505050815260200160028201805461140d906129b9565b80601f0160208091040260200160405190810160405280929190818152602001828054611439906129b9565b80156114865780601f1061145b57610100808354040283529160200191611486565b820191906000526020600020905b81548152906001019060200180831161146957829003601f168201915b5050505050815250509080600e01604051806060016040529081600082015481526020016001820180546114b9906129b9565b80601f01602080910402602001604051908101604052809291908181526020018280546114e5906129b9565b80156115325780601f1061150757610100808354040283529160200191611532565b820191906000526020600020905b81548152906001019060200180831161151557829003601f168201915b5050505050815260200160028201805461154b906129b9565b80601f0160208091040260200160405190810160405280929190818152602001828054611577906129b9565b80156115c45780601f10611599576101008083540402835291602001916115c4565b820191906000526020600020905b8154815290600101906020018083116115a757829003601f168201915b505050505081525050905085565b6115da61201e565b600482815481106115ee576115ed612c68565b5b906000526020600020906003020160405180606001604052908160008201548152602001600182018054611621906129b9565b80601f016020809104026020016040519081016040528092919081815260200182805461164d906129b9565b801561169a5780601f1061166f5761010080835404028352916020019161169a565b820191906000526020600020905b81548152906001019060200180831161167d57829003601f168201915b505050505081526020016002820180546116b3906129b9565b80601f01602080910402602001604051908101604052809291908181526020018280546116df906129b9565b801561172c5780601f106117015761010080835404028352916020019161172c565b820191906000526020600020905b81548152906001019060200180831161170f57829003601f168201915b5050505050815250509050919050565b60026040518060a001604052806003600081548092919061175c90612942565b9190505581526020018681526020016000868154811061177f5761177e612c68565b5b90600052602060002090600902016040518060e001604052908160008201548152602001600182015481526020016002820180546117bc906129b9565b80601f01602080910402602001604051908101604052809291908181526020018280546117e8906129b9565b80156118355780601f1061180a57610100808354040283529160200191611835565b820191906000526020600020905b81548152906001019060200180831161181857829003601f168201915b5050505050815260200160038201805461184e906129b9565b80601f016020809104026020016040519081016040528092919081815260200182805461187a906129b9565b80156118c75780601f1061189c576101008083540402835291602001916118c7565b820191906000526020600020905b8154815290600101906020018083116118aa57829003601f168201915b505050505081526020016004820154815260200160058201548152602001600682016040518060600160405290816000820154815260200160018201805461190e906129b9565b80601f016020809104026020016040519081016040528092919081815260200182805461193a906129b9565b80156119875780601f1061195c57610100808354040283529160200191611987565b820191906000526020600020905b81548152906001019060200180831161196a57829003601f168201915b505050505081526020016002820180546119a0906129b9565b80601f01602080910402602001604051908101604052809291908181526020018280546119cc906129b9565b8015611a195780601f106119ee57610100808354040283529160200191611a19565b820191906000526020600020905b8154815290600101906020018083116119fc57829003601f168201915b50505050508152505081525050815260200160048581548110611a3f57611a3e612c68565b5b906000526020600020906003020160405180606001604052908160008201548152602001600182018054611a72906129b9565b80601f0160208091040260200160405190810160405280929190818152602001828054611a9e906129b9565b8015611aeb5780601f10611ac057610100808354040283529160200191611aeb565b820191906000526020600020905b815481529060010190602001808311611ace57829003601f168201915b50505050508152602001600282018054611b04906129b9565b80601f0160208091040260200160405190810160405280929190818152602001828054611b30906129b9565b8015611b7d5780601f10611b5257610100808354040283529160200191611b7d565b820191906000526020600020905b815481529060010190602001808311611b6057829003601f168201915b505050505081525050815260200160048481548110611b9f57611b9e612c68565b5b906000526020600020906003020160405180606001604052908160008201548152602001600182018054611bd2906129b9565b80601f0160208091040260200160405190810160405280929190818152602001828054611bfe906129b9565b8015611c4b5780601f10611c2057610100808354040283529160200191611c4b565b820191906000526020600020905b815481529060010190602001808311611c2e57829003601f168201915b50505050508152602001600282018054611c64906129b9565b80601f0160208091040260200160405190810160405280929190818152602001828054611c90906129b9565b8015611cdd5780601f10611cb257610100808354040283529160200191611cdd565b820191906000526020600020905b815481529060010190602001808311611cc057829003601f168201915b5050505050815250508152509080600181540180825580915050600190039060005260206000209060110201600090919091909150600082015181600001556020820151816001015560408201518160020160008201518160000155602082015181600101556040820151816002019081611d589190612b96565b506060820151816003019081611d6e9190612b96565b506080820151816004015560a0820151816005015560c082015181600601600082015181600001556020820151816001019081611dab9190612b96565b506040820151816002019081611dc19190612b96565b5050505050606082015181600b01600082015181600001556020820151816001019081611dee9190612b96565b506040820151816002019081611e049190612b96565b505050608082015181600e01600082015181600001556020820151816001019081611e2f9190612b96565b506040820151816002019081611e459190612b96565b505050505050505050565b60048181548110611e6057600080fd5b9060005260206000209060030201600091509050806000015490806001018054611e89906129b9565b80601f0160208091040260200160405190810160405280929190818152602001828054611eb5906129b9565b8015611f025780601f10611ed757610100808354040283529160200191611f02565b820191906000526020600020905b815481529060010190602001808311611ee557829003601f168201915b505050505090806002018054611f17906129b9565b80601f0160208091040260200160405190810160405280929190818152602001828054611f43906129b9565b8015611f905780601f10611f6557610100808354040283529160200191611f90565b820191906000526020600020905b815481529060010190602001808311611f7357829003601f168201915b5050505050905083565b6040518060a001604052806000815260200160008152602001611fbb611fdb565b8152602001611fc861201e565b8152602001611fd561201e565b81525090565b6040518060e0016040528060008152602001600081526020016060815260200160608152602001600081526020016000815260200161201861201e565b81525090565b60405180606001604052806000815260200160608152602001606081525090565b6000819050919050565b6120528161203f565b82525050565b600060208201905061206d6000830184612049565b92915050565b6000604051905090565b600080fd5b600080fd5b600080fd5b600080fd5b6000601f19601f8301169050919050565b7f4e487b7100000000000000000000000000000000000000000000000000000000600052604160045260246000fd5b6120da82612091565b810181811067ffffffffffffffff821117156120f9576120f86120a2565b5b80604052505050565b600061210c612073565b905061211882826120d1565b919050565b600067ffffffffffffffff821115612138576121376120a2565b5b61214182612091565b9050602081019050919050565b82818337600083830152505050565b600061217061216b8461211d565b612102565b90508281526020810184848401111561218c5761218b61208c565b5b61219784828561214e565b509392505050565b600082601f8301126121b4576121b3612087565b5b81356121c484826020860161215d565b91505092915050565b600080604083850312156121e4576121e361207d565b5b600083013567ffffffffffffffff81111561220257612201612082565b5b61220e8582860161219f565b925050602083013567ffffffffffffffff81111561222f5761222e612082565b5b61223b8582860161219f565b9150509250929050565b61224e8161203f565b811461225957600080fd5b50565b60008135905061226b81612245565b92915050565b6000602082840312156122875761228661207d565b5b60006122958482850161225c565b91505092915050565b6122a78161203f565b82525050565b6000819050919050565b6122c0816122ad565b82525050565b600081519050919050565b600082825260208201905092915050565b60005b838110156123005780820151818401526020810190506122e5565b60008484015250505050565b6000612317826122c6565b61232181856122d1565b93506123318185602086016122e2565b61233a81612091565b840191505092915050565b600060608301600083015161235d600086018261229e565b5060208301518482036020860152612375828261230c565b9150506040830151848203604086015261238f828261230c565b9150508091505092915050565b600060e0830160008301516123b4600086018261229e565b5060208301516123c760208601826122b7565b50604083015184820360408601526123df828261230c565b915050606083015184820360608601526123f9828261230c565b915050608083015161240e608086018261229e565b5060a083015161242160a08601826122b7565b5060c083015184820360c08601526124398282612345565b9150508091505092915050565b600060a08301600083015161245e600086018261229e565b506020830151612471602086018261229e565b5060408301518482036040860152612489828261239c565b915050606083015184820360608601526124a38282612345565b915050608083015184820360808601526124bd8282612345565b9150508091505092915050565b600060208201905081810360008301526124e48184612446565b905092915050565b600060e083016000830151612504600086018261229e565b50602083015161251760208601826122b7565b506040830151848203604086015261252f828261230c565b91505060608301518482036060860152612549828261230c565b915050608083015161255e608086018261229e565b5060a083015161257160a08601826122b7565b5060c083015184820360c08601526125898282612345565b9150508091505092915050565b600060208201905081810360008301526125b081846124ec565b905092915050565b6125c1816122ad565b81146125cc57600080fd5b50565b6000813590506125de816125b8565b92915050565b60008060008060008060c087890312156126015761260061207d565b5b600061260f89828a016125cf565b965050602087013567ffffffffffffffff8111156126305761262f612082565b5b61263c89828a0161219f565b955050604087013567ffffffffffffffff81111561265d5761265c612082565b5b61266989828a0161219f565b945050606061267a89828a0161225c565b935050608061268b89828a016125cf565b92505060a061269c89828a0161225c565b9150509295509295509295565b6126b2816122ad565b82525050565b600082825260208201905092915050565b60006126d4826122c6565b6126de81856126b8565b93506126ee8185602086016122e2565b6126f781612091565b840191505092915050565b600060608301600083015161271a600086018261229e565b5060208301518482036020860152612732828261230c565b9150506040830151848203604086015261274c828261230c565b9150508091505092915050565b600060e08201905061276e600083018a612049565b61277b60208301896126a9565b818103604083015261278d81886126c9565b905081810360608301526127a181876126c9565b90506127b06080830186612049565b6127bd60a08301856126a9565b81810360c08301526127cf8184612702565b905098975050505050505050565b600060a0820190506127f26000830188612049565b6127ff6020830187612049565b818103604083015261281181866124ec565b905081810360608301526128258185612702565b905081810360808301526128398184612702565b90509695505050505050565b6000602082019050818103600083015261285f8184612702565b905092915050565b600080600080608085870312156128815761288061207d565b5b600061288f8782880161225c565b94505060206128a08782880161225c565b93505060406128b18782880161225c565b92505060606128c28782880161225c565b91505092959194509250565b60006060820190506128e36000830186612049565b81810360208301526128f581856126c9565b9050818103604083015261290981846126c9565b9050949350505050565b7f4e487b7100000000000000000000000000000000000000000000000000000000600052601160045260246000fd5b600061294d8261203f565b91507fffffffffffffffffffffffffffffffffffffffffffffffffffffffffffffffff820361297f5761297e612913565b5b600182019050919050565b7f4e487b7100000000000000000000000000000000000000000000000000000000600052602260045260246000fd5b600060028204905060018216806129d157607f821691505b6020821081036129e4576129e361298a565b5b50919050565b60008190508160005260206000209050919050565b60006020601f8301049050919050565b600082821b905092915050565b600060088302612a4c7fffffffffffffffffffffffffffffffffffffffffffffffffffffffffffffffff82612a0f565b612a568683612a0f565b95508019841693508086168417925050509392505050565b6000819050919050565b6000612a93612a8e612a898461203f565b612a6e565b61203f565b9050919050565b6000819050919050565b612aad83612a78565b612ac1612ab982612a9a565b848454612a1c565b825550505050565b600090565b612ad6612ac9565b612ae1818484612aa4565b505050565b5b81811015612b0557612afa600082612ace565b600181019050612ae7565b5050565b601f821115612b4a57612b1b816129ea565b612b24846129ff565b81016020851015612b33578190505b612b47612b3f856129ff565b830182612ae6565b50505b505050565b600082821c905092915050565b6000612b6d60001984600802612b4f565b1980831691505092915050565b6000612b868383612b5c565b9150826002028217905092915050565b612b9f826122c6565b67ffffffffffffffff811115612bb857612bb76120a2565b5b612bc282546129b9565b612bcd828285612b09565b600060209050601f831160018114612c005760008415612bee578287015190505b612bf88582612b7a565b865550612c60565b601f198416612c0e866129ea565b60005b82811015612c3657848901518255600182019150602085019450602081019050612c11565b86831015612c535784890151612c4f601f891682612b5c565b8355505b6001600288020188555050505b505050505050565b7f4e487b7100000000000000000000000000000000000000000000000000000000600052603260045260246000fdfea26469706673582212203931de0b1bcc472dcbe9205a96e96e9cf903184e7fe8a35b57ffedab1e1349d464736f6c63430008110033",
  "immutableReferences": {},
  "source": "pragma solidity ^0.8.6;\n\ncontract purchaseContract {\n\n    struct Comic{\n        uint idcomic;\n        int price;\n        string name_comic;\n        string author;\n        uint publish_date;\n        int ISBN;\n        Client owner;\n    }\n\n    struct Purchase{\n        uint idpurchase;\n        uint purchase_date;\n        Comic item;\n        Client owner;\n        Client buyer;\n    }\n\n    struct Client{\n        uint idclient;\n        string name;\n        string pass;\n    }\n    Comic[] public comics; \n    uint public nextidComic;\n    Purchase[] public purchases;\n    uint public nextIdPurchase;\n    Client[] public clients;\n    uint public nextIdClients;\n\n    function createComic (int _price, string memory _name_comic, string memory _author, uint  _publish_date, int  _isbn, uint _owner_id) public{\n        comics.push(Comic(nextidComic++, _price,_name_comic, _author, _publish_date, _isbn, clients[_owner_id]));\n    }\n\n    function getComic(uint id) public view returns (Comic memory) {\n        return comics[id];\n    }\n    \n    function createPurchase(uint _purchase_date, uint  _item_id, uint  _owner_id, uint  _buyer_id) public {\n        purchases.push(Purchase(nextIdPurchase++, _purchase_date, comics[_item_id], clients[_owner_id], clients[_buyer_id]));\n    }\n    \n    function createClient (string memory _name, string memory _pass) public{\n        clients.push(Client(nextIdClients++, _name, _pass));\n    }\n\n    function getPurchase(uint id) public view returns (Purchase memory){\n        return purchases[id];\n    }\n\n    function getClient(uint id) public view returns (Client memory){\n        return clients[id];\n    }\n\n\n    //function\n    \n    \n}",
  "sourcePath": "D:\\Universidad\\Criptocomicnow\\contracts\\purchaseContract.sol",
  "compiler": {
    "name": "solc",
    "version": "0.8.17+commit.8df45f5f.Emscripten.clang"
  },
  "schemaVersion": "3.4.10",
  "updatedAt": "2022-11-21T00:51:30.564Z",
  "networkType": "ethereum",
  "devdoc": {
    "kind": "dev",
    "methods": {},
    "version": 1
  },
  "userdoc": {
    "kind": "user",
    "methods": {},
    "version": 1
  }
}