{
  "contractName": "purchaseContract",
  "abi": [
    {
      "inputs": [
        {
          "internalType": "uint256",
          "name": "",
          "type": "uint256"
        }
      ],
      "name": "clients",
      "outputs": [
        {
          "internalType": "uint256",
          "name": "idclient",
          "type": "uint256"
        },
        {
          "internalType": "string",
          "name": "name",
          "type": "string"
        }
      ],
      "stateMutability": "view",
      "type": "function",
      "constant": true
    },
    {
      "inputs": [
        {
          "internalType": "uint256",
          "name": "",
          "type": "uint256"
        }
      ],
      "name": "comics",
      "outputs": [
        {
          "internalType": "uint256",
          "name": "idcomic",
          "type": "uint256"
        },
        {
          "internalType": "int256",
          "name": "price",
          "type": "int256"
        },
        {
          "internalType": "string",
          "name": "name_comic",
          "type": "string"
        },
        {
          "internalType": "string",
          "name": "author",
          "type": "string"
        },
        {
          "internalType": "uint256",
          "name": "publish_date",
          "type": "uint256"
        },
        {
          "internalType": "int256",
          "name": "ISBN",
          "type": "int256"
        },
        {
          "components": [
            {
              "internalType": "uint256",
              "name": "idclient",
              "type": "uint256"
            },
            {
              "internalType": "string",
              "name": "name",
              "type": "string"
            }
          ],
          "internalType": "struct purchaseContract.Client",
          "name": "owner",
          "type": "tuple"
        }
      ],
      "stateMutability": "view",
      "type": "function",
      "constant": true
    },
    {
      "inputs": [],
      "name": "nextIdClients",
      "outputs": [
        {
          "internalType": "uint256",
          "name": "",
          "type": "uint256"
        }
      ],
      "stateMutability": "view",
      "type": "function",
      "constant": true
    },
    {
      "inputs": [],
      "name": "nextIdPurchase",
      "outputs": [
        {
          "internalType": "uint256",
          "name": "",
          "type": "uint256"
        }
      ],
      "stateMutability": "view",
      "type": "function",
      "constant": true
    },
    {
      "inputs": [],
      "name": "nextidComic",
      "outputs": [
        {
          "internalType": "uint256",
          "name": "",
          "type": "uint256"
        }
      ],
      "stateMutability": "view",
      "type": "function",
      "constant": true
    },
    {
      "inputs": [
        {
          "internalType": "uint256",
          "name": "",
          "type": "uint256"
        }
      ],
      "name": "purchases",
      "outputs": [
        {
          "internalType": "uint256",
          "name": "idpurchase",
          "type": "uint256"
        },
        {
          "internalType": "uint256",
          "name": "purchase_date",
          "type": "uint256"
        },
        {
          "components": [
            {
              "internalType": "uint256",
              "name": "idcomic",
              "type": "uint256"
            },
            {
              "internalType": "int256",
              "name": "price",
              "type": "int256"
            },
            {
              "internalType": "string",
              "name": "name_comic",
              "type": "string"
            },
            {
              "internalType": "string",
              "name": "author",
              "type": "string"
            },
            {
              "internalType": "uint256",
              "name": "publish_date",
              "type": "uint256"
            },
            {
              "internalType": "int256",
              "name": "ISBN",
              "type": "int256"
            },
            {
              "components": [
                {
                  "internalType": "uint256",
                  "name": "idclient",
                  "type": "uint256"
                },
                {
                  "internalType": "string",
                  "name": "name",
                  "type": "string"
                }
              ],
              "internalType": "struct purchaseContract.Client",
              "name": "owner",
              "type": "tuple"
            }
          ],
          "internalType": "struct purchaseContract.Comic",
          "name": "item",
          "type": "tuple"
        },
        {
          "components": [
            {
              "internalType": "uint256",
              "name": "idclient",
              "type": "uint256"
            },
            {
              "internalType": "string",
              "name": "name",
              "type": "string"
            }
          ],
          "internalType": "struct purchaseContract.Client",
          "name": "owner",
          "type": "tuple"
        },
        {
          "components": [
            {
              "internalType": "uint256",
              "name": "idclient",
              "type": "uint256"
            },
            {
              "internalType": "string",
              "name": "name",
              "type": "string"
            }
          ],
          "internalType": "struct purchaseContract.Client",
          "name": "buyer",
          "type": "tuple"
        }
      ],
      "stateMutability": "view",
      "type": "function",
      "constant": true
    },
    {
      "inputs": [
        {
          "internalType": "int256",
          "name": "_price",
          "type": "int256"
        },
        {
          "internalType": "string",
          "name": "_name_comic",
          "type": "string"
        },
        {
          "internalType": "string",
          "name": "_author",
          "type": "string"
        },
        {
          "internalType": "uint256",
          "name": "_publish_date",
          "type": "uint256"
        },
        {
          "internalType": "int256",
          "name": "_isbn",
          "type": "int256"
        },
        {
          "internalType": "uint256",
          "name": "_owner_id",
          "type": "uint256"
        }
      ],
      "name": "createComic",
      "outputs": [],
      "stateMutability": "nonpayable",
      "type": "function"
    },
    {
      "inputs": [
        {
          "internalType": "uint256",
          "name": "id",
          "type": "uint256"
        }
      ],
      "name": "getComic",
      "outputs": [
        {
          "components": [
            {
              "internalType": "uint256",
              "name": "idcomic",
              "type": "uint256"
            },
            {
              "internalType": "int256",
              "name": "price",
              "type": "int256"
            },
            {
              "internalType": "string",
              "name": "name_comic",
              "type": "string"
            },
            {
              "internalType": "string",
              "name": "author",
              "type": "string"
            },
            {
              "internalType": "uint256",
              "name": "publish_date",
              "type": "uint256"
            },
            {
              "internalType": "int256",
              "name": "ISBN",
              "type": "int256"
            },
            {
              "components": [
                {
                  "internalType": "uint256",
                  "name": "idclient",
                  "type": "uint256"
                },
                {
                  "internalType": "string",
                  "name": "name",
                  "type": "string"
                }
              ],
              "internalType": "struct purchaseContract.Client",
              "name": "owner",
              "type": "tuple"
            }
          ],
          "internalType": "struct purchaseContract.Comic",
          "name": "",
          "type": "tuple"
        }
      ],
      "stateMutability": "view",
      "type": "function",
      "constant": true
    },
    {
      "inputs": [
        {
          "internalType": "uint256",
          "name": "_purchase_date",
          "type": "uint256"
        },
        {
          "internalType": "uint256",
          "name": "_item_id",
          "type": "uint256"
        },
        {
          "internalType": "uint256",
          "name": "_owner_id",
          "type": "uint256"
        },
        {
          "internalType": "uint256",
          "name": "_buyer_id",
          "type": "uint256"
        }
      ],
      "name": "createPurchase",
      "outputs": [],
      "stateMutability": "nonpayable",
      "type": "function"
    },
    {
      "inputs": [
        {
          "internalType": "string",
          "name": "_name",
          "type": "string"
        }
      ],
      "name": "createClient",
      "outputs": [],
      "stateMutability": "nonpayable",
      "type": "function"
    },
    {
      "inputs": [
        {
          "internalType": "uint256",
          "name": "id",
          "type": "uint256"
        }
      ],
      "name": "getPurchase",
      "outputs": [
        {
          "components": [
            {
              "internalType": "uint256",
              "name": "idpurchase",
              "type": "uint256"
            },
            {
              "internalType": "uint256",
              "name": "purchase_date",
              "type": "uint256"
            },
            {
              "components": [
                {
                  "internalType": "uint256",
                  "name": "idcomic",
                  "type": "uint256"
                },
                {
                  "internalType": "int256",
                  "name": "price",
                  "type": "int256"
                },
                {
                  "internalType": "string",
                  "name": "name_comic",
                  "type": "string"
                },
                {
                  "internalType": "string",
                  "name": "author",
                  "type": "string"
                },
                {
                  "internalType": "uint256",
                  "name": "publish_date",
                  "type": "uint256"
                },
                {
                  "internalType": "int256",
                  "name": "ISBN",
                  "type": "int256"
                },
                {
                  "components": [
                    {
                      "internalType": "uint256",
                      "name": "idclient",
                      "type": "uint256"
                    },
                    {
                      "internalType": "string",
                      "name": "name",
                      "type": "string"
                    }
                  ],
                  "internalType": "struct purchaseContract.Client",
                  "name": "owner",
                  "type": "tuple"
                }
              ],
              "internalType": "struct purchaseContract.Comic",
              "name": "item",
              "type": "tuple"
            },
            {
              "components": [
                {
                  "internalType": "uint256",
                  "name": "idclient",
                  "type": "uint256"
                },
                {
                  "internalType": "string",
                  "name": "name",
                  "type": "string"
                }
              ],
              "internalType": "struct purchaseContract.Client",
              "name": "owner",
              "type": "tuple"
            },
            {
              "components": [
                {
                  "internalType": "uint256",
                  "name": "idclient",
                  "type": "uint256"
                },
                {
                  "internalType": "string",
                  "name": "name",
                  "type": "string"
                }
              ],
              "internalType": "struct purchaseContract.Client",
              "name": "buyer",
              "type": "tuple"
            }
          ],
          "internalType": "struct purchaseContract.Purchase",
          "name": "",
          "type": "tuple"
        }
      ],
      "stateMutability": "view",
      "type": "function",
      "constant": true
    },
    {
      "inputs": [
        {
          "internalType": "uint256",
          "name": "id",
          "type": "uint256"
        }
      ],
      "name": "getClient",
      "outputs": [
        {
          "components": [
            {
              "internalType": "uint256",
              "name": "idclient",
              "type": "uint256"
            },
            {
              "internalType": "string",
              "name": "name",
              "type": "string"
            }
          ],
          "internalType": "struct purchaseContract.Client",
          "name": "",
          "type": "tuple"
        }
      ],
      "stateMutability": "view",
      "type": "function",
      "constant": true
    }
  ],
  "bytecode": "0x608060405234801561001057600080fd5b506123e0806100206000396000f3fe608060405234801561001057600080fd5b50600436106100b45760003560e01c80637a80dc1d116100715780637a80dc1d1461018f5780638392fe31146101c5578063d0068f80146101f9578063e32bf8e414610229578063e88e9f0f14610245578063f88af21d14610261576100b4565b80632cb9d0e8146100b95780633742a9f7146100d757806347ac33ee1461010757806351a1e8f0146101375780635b02c922146101535780636f3ffbb914610171575b600080fd5b6100c1610292565b6040516100ce91906117e3565b60405180910390f35b6100f160048036038101906100ec919061183e565b610298565b6040516100fe9190611a8e565b60405180910390f35b610121600480360381019061011c919061183e565b610658565b60405161012e9190611b5a565b60405180910390f35b610151600480360381019061014c9190611cdd565b610890565b005b61015b610a55565b60405161016891906117e3565b60405180910390f35b610179610a5b565b60405161018691906117e3565b60405180910390f35b6101a960048036038101906101a4919061183e565b610a61565b6040516101bc9796959493929190611e38565b60405180910390f35b6101df60048036038101906101da919061183e565b610c69565b6040516101f0959493929190611ebc565b60405180910390f35b610213600480360381019061020e919061183e565b611001565b6040516102209190611f24565b60405180910390f35b610243600480360381019061023e9190611f46565b6110d9565b005b61025f600480360381019061025a9190611fad565b6115f5565b005b61027b6004803603810190610276919061183e565b611670565b604051610289929190611ff6565b60405180910390f35b60035481565b6102a061172c565b600282815481106102b4576102b3612026565b5b90600052602060002090600e02016040518060a00160405290816000820154815260200160018201548152602001600282016040518060e0016040529081600082015481526020016001820154815260200160028201805461031590612084565b80601f016020809104026020016040519081016040528092919081815260200182805461034190612084565b801561038e5780601f106103635761010080835404028352916020019161038e565b820191906000526020600020905b81548152906001019060200180831161037157829003601f168201915b505050505081526020016003820180546103a790612084565b80601f01602080910402602001604051908101604052809291908181526020018280546103d390612084565b80156104205780601f106103f557610100808354040283529160200191610420565b820191906000526020600020905b81548152906001019060200180831161040357829003601f168201915b505050505081526020016004820154815260200160058201548152602001600682016040518060400160405290816000820154815260200160018201805461046790612084565b80601f016020809104026020016040519081016040528092919081815260200182805461049390612084565b80156104e05780601f106104b5576101008083540402835291602001916104e0565b820191906000526020600020905b8154815290600101906020018083116104c357829003601f168201915b505050505081525050815250508152602001600a82016040518060400160405290816000820154815260200160018201805461051b90612084565b80601f016020809104026020016040519081016040528092919081815260200182805461054790612084565b80156105945780601f1061056957610100808354040283529160200191610594565b820191906000526020600020905b81548152906001019060200180831161057757829003601f168201915b5050505050815250508152602001600c8201604051806040016040529081600082015481526020016001820180546105cb90612084565b80601f01602080910402602001604051908101604052809291908181526020018280546105f790612084565b80156106445780601f1061061957610100808354040283529160200191610644565b820191906000526020600020905b81548152906001019060200180831161062757829003601f168201915b505050505081525050815250509050919050565b61066061176d565b6000828154811061067457610673612026565b5b90600052602060002090600802016040518060e001604052908160008201548152602001600182015481526020016002820180546106b190612084565b80601f01602080910402602001604051908101604052809291908181526020018280546106dd90612084565b801561072a5780601f106106ff5761010080835404028352916020019161072a565b820191906000526020600020905b81548152906001019060200180831161070d57829003601f168201915b5050505050815260200160038201805461074390612084565b80601f016020809104026020016040519081016040528092919081815260200182805461076f90612084565b80156107bc5780601f10610791576101008083540402835291602001916107bc565b820191906000526020600020905b81548152906001019060200180831161079f57829003601f168201915b505050505081526020016004820154815260200160058201548152602001600682016040518060400160405290816000820154815260200160018201805461080390612084565b80601f016020809104026020016040519081016040528092919081815260200182805461082f90612084565b801561087c5780601f106108515761010080835404028352916020019161087c565b820191906000526020600020905b81548152906001019060200180831161085f57829003601f168201915b505050505081525050815250509050919050565b60006040518060e00160405280600160008154809291906108b0906120e4565b919050558152602001888152602001878152602001868152602001858152602001848152602001600484815481106108eb576108ea612026565b5b90600052602060002090600202016040518060400160405290816000820154815260200160018201805461091e90612084565b80601f016020809104026020016040519081016040528092919081815260200182805461094a90612084565b80156109975780601f1061096c57610100808354040283529160200191610997565b820191906000526020600020905b81548152906001019060200180831161097a57829003601f168201915b5050505050815250508152509080600181540180825580915050600190039060005260206000209060080201600090919091909150600082015181600001556020820151816001015560408201518160020190816109f591906122d8565b506060820151816003019081610a0b91906122d8565b506080820151816004015560a0820151816005015560c082015181600601600082015181600001556020820151816001019081610a4891906122d8565b5050505050505050505050565b60055481565b60015481565b60008181548110610a7157600080fd5b9060005260206000209060080201600091509050806000015490806001015490806002018054610aa090612084565b80601f0160208091040260200160405190810160405280929190818152602001828054610acc90612084565b8015610b195780601f10610aee57610100808354040283529160200191610b19565b820191906000526020600020905b815481529060010190602001808311610afc57829003601f168201915b505050505090806003018054610b2e90612084565b80601f0160208091040260200160405190810160405280929190818152602001828054610b5a90612084565b8015610ba75780601f10610b7c57610100808354040283529160200191610ba7565b820191906000526020600020905b815481529060010190602001808311610b8a57829003601f168201915b5050505050908060040154908060050154908060060160405180604001604052908160008201548152602001600182018054610be290612084565b80601f0160208091040260200160405190810160405280929190818152602001828054610c0e90612084565b8015610c5b5780601f10610c3057610100808354040283529160200191610c5b565b820191906000526020600020905b815481529060010190602001808311610c3e57829003601f168201915b505050505081525050905087565b60028181548110610c7957600080fd5b90600052602060002090600e0201600091509050806000015490806001015490806002016040518060e00160405290816000820154815260200160018201548152602001600282018054610ccc90612084565b80601f0160208091040260200160405190810160405280929190818152602001828054610cf890612084565b8015610d455780601f10610d1a57610100808354040283529160200191610d45565b820191906000526020600020905b815481529060010190602001808311610d2857829003601f168201915b50505050508152602001600382018054610d5e90612084565b80601f0160208091040260200160405190810160405280929190818152602001828054610d8a90612084565b8015610dd75780601f10610dac57610100808354040283529160200191610dd7565b820191906000526020600020905b815481529060010190602001808311610dba57829003601f168201915b5050505050815260200160048201548152602001600582015481526020016006820160405180604001604052908160008201548152602001600182018054610e1e90612084565b80601f0160208091040260200160405190810160405280929190818152602001828054610e4a90612084565b8015610e975780601f10610e6c57610100808354040283529160200191610e97565b820191906000526020600020905b815481529060010190602001808311610e7a57829003601f168201915b505050505081525050815250509080600a0160405180604001604052908160008201548152602001600182018054610ece90612084565b80601f0160208091040260200160405190810160405280929190818152602001828054610efa90612084565b8015610f475780601f10610f1c57610100808354040283529160200191610f47565b820191906000526020600020905b815481529060010190602001808311610f2a57829003601f168201915b5050505050815250509080600c0160405180604001604052908160008201548152602001600182018054610f7a90612084565b80601f0160208091040260200160405190810160405280929190818152602001828054610fa690612084565b8015610ff35780601f10610fc857610100808354040283529160200191610ff3565b820191906000526020600020905b815481529060010190602001808311610fd657829003601f168201915b505050505081525050905085565b6110096117b0565b6004828154811061101d5761101c612026565b5b90600052602060002090600202016040518060400160405290816000820154815260200160018201805461105090612084565b80601f016020809104026020016040519081016040528092919081815260200182805461107c90612084565b80156110c95780601f1061109e576101008083540402835291602001916110c9565b820191906000526020600020905b8154815290600101906020018083116110ac57829003601f168201915b5050505050815250509050919050565b60026040518060a00160405280600360008154809291906110f9906120e4565b9190505581526020018681526020016000868154811061111c5761111b612026565b5b90600052602060002090600802016040518060e0016040529081600082015481526020016001820154815260200160028201805461115990612084565b80601f016020809104026020016040519081016040528092919081815260200182805461118590612084565b80156111d25780601f106111a7576101008083540402835291602001916111d2565b820191906000526020600020905b8154815290600101906020018083116111b557829003601f168201915b505050505081526020016003820180546111eb90612084565b80601f016020809104026020016040519081016040528092919081815260200182805461121790612084565b80156112645780601f1061123957610100808354040283529160200191611264565b820191906000526020600020905b81548152906001019060200180831161124757829003601f168201915b50505050508152602001600482015481526020016005820154815260200160068201604051806040016040529081600082015481526020016001820180546112ab90612084565b80601f01602080910402602001604051908101604052809291908181526020018280546112d790612084565b80156113245780601f106112f957610100808354040283529160200191611324565b820191906000526020600020905b81548152906001019060200180831161130757829003601f168201915b5050505050815250508152505081526020016004858154811061134a57611349612026565b5b90600052602060002090600202016040518060400160405290816000820154815260200160018201805461137d90612084565b80601f01602080910402602001604051908101604052809291908181526020018280546113a990612084565b80156113f65780601f106113cb576101008083540402835291602001916113f6565b820191906000526020600020905b8154815290600101906020018083116113d957829003601f168201915b50505050508152505081526020016004848154811061141857611417612026565b5b90600052602060002090600202016040518060400160405290816000820154815260200160018201805461144b90612084565b80601f016020809104026020016040519081016040528092919081815260200182805461147790612084565b80156114c45780601f10611499576101008083540402835291602001916114c4565b820191906000526020600020905b8154815290600101906020018083116114a757829003601f168201915b50505050508152505081525090806001815401808255809150506001900390600052602060002090600e020160009091909190915060008201518160000155602082015181600101556040820151816002016000820151816000015560208201518160010155604082015181600201908161153f91906122d8565b50606082015181600301908161155591906122d8565b506080820151816004015560a0820151816005015560c08201518160060160008201518160000155602082015181600101908161159291906122d8565b5050505050606082015181600a016000820151816000015560208201518160010190816115bf91906122d8565b505050608082015181600c016000820151816000015560208201518160010190816115ea91906122d8565b505050505050505050565b6004604051806040016040528060056000815480929190611615906120e4565b91905055815260200183815250908060018154018082558091505060019003906000526020600020906002020160009091909190915060008201518160000155602082015181600101908161166a91906122d8565b50505050565b6004818154811061168057600080fd5b90600052602060002090600202016000915090508060000154908060010180546116a990612084565b80601f01602080910402602001604051908101604052809291908181526020018280546116d590612084565b80156117225780601f106116f757610100808354040283529160200191611722565b820191906000526020600020905b81548152906001019060200180831161170557829003601f168201915b5050505050905082565b6040518060a00160405280600081526020016000815260200161174d61176d565b815260200161175a6117b0565b81526020016117676117b0565b81525090565b6040518060e001604052806000815260200160008152602001606081526020016060815260200160008152602001600081526020016117aa6117b0565b81525090565b604051806040016040528060008152602001606081525090565b6000819050919050565b6117dd816117ca565b82525050565b60006020820190506117f860008301846117d4565b92915050565b6000604051905090565b600080fd5b600080fd5b61181b816117ca565b811461182657600080fd5b50565b60008135905061183881611812565b92915050565b60006020828403121561185457611853611808565b5b600061186284828501611829565b91505092915050565b611874816117ca565b82525050565b6000819050919050565b61188d8161187a565b82525050565b600081519050919050565b600082825260208201905092915050565b60005b838110156118cd5780820151818401526020810190506118b2565b60008484015250505050565b6000601f19601f8301169050919050565b60006118f582611893565b6118ff818561189e565b935061190f8185602086016118af565b611918816118d9565b840191505092915050565b600060408301600083015161193b600086018261186b565b506020830151848203602086015261195382826118ea565b9150508091505092915050565b600060e083016000830151611978600086018261186b565b50602083015161198b6020860182611884565b50604083015184820360408601526119a382826118ea565b915050606083015184820360608601526119bd82826118ea565b91505060808301516119d2608086018261186b565b5060a08301516119e560a0860182611884565b5060c083015184820360c08601526119fd8282611923565b9150508091505092915050565b600060a083016000830151611a22600086018261186b565b506020830151611a35602086018261186b565b5060408301518482036040860152611a4d8282611960565b91505060608301518482036060860152611a678282611923565b91505060808301518482036080860152611a818282611923565b9150508091505092915050565b60006020820190508181036000830152611aa88184611a0a565b905092915050565b600060e083016000830151611ac8600086018261186b565b506020830151611adb6020860182611884565b5060408301518482036040860152611af382826118ea565b91505060608301518482036060860152611b0d82826118ea565b9150506080830151611b22608086018261186b565b5060a0830151611b3560a0860182611884565b5060c083015184820360c0860152611b4d8282611923565b9150508091505092915050565b60006020820190508181036000830152611b748184611ab0565b905092915050565b611b858161187a565b8114611b9057600080fd5b50565b600081359050611ba281611b7c565b92915050565b600080fd5b600080fd5b7f4e487b7100000000000000000000000000000000000000000000000000000000600052604160045260246000fd5b611bea826118d9565b810181811067ffffffffffffffff82111715611c0957611c08611bb2565b5b80604052505050565b6000611c1c6117fe565b9050611c288282611be1565b919050565b600067ffffffffffffffff821115611c4857611c47611bb2565b5b611c51826118d9565b9050602081019050919050565b82818337600083830152505050565b6000611c80611c7b84611c2d565b611c12565b905082815260208101848484011115611c9c57611c9b611bad565b5b611ca7848285611c5e565b509392505050565b600082601f830112611cc457611cc3611ba8565b5b8135611cd4848260208601611c6d565b91505092915050565b60008060008060008060c08789031215611cfa57611cf9611808565b5b6000611d0889828a01611b93565b965050602087013567ffffffffffffffff811115611d2957611d2861180d565b5b611d3589828a01611caf565b955050604087013567ffffffffffffffff811115611d5657611d5561180d565b5b611d6289828a01611caf565b9450506060611d7389828a01611829565b9350506080611d8489828a01611b93565b92505060a0611d9589828a01611829565b9150509295509295509295565b611dab8161187a565b82525050565b600082825260208201905092915050565b6000611dcd82611893565b611dd78185611db1565b9350611de78185602086016118af565b611df0816118d9565b840191505092915050565b6000604083016000830151611e13600086018261186b565b5060208301518482036020860152611e2b82826118ea565b9150508091505092915050565b600060e082019050611e4d600083018a6117d4565b611e5a6020830189611da2565b8181036040830152611e6c8188611dc2565b90508181036060830152611e808187611dc2565b9050611e8f60808301866117d4565b611e9c60a0830185611da2565b81810360c0830152611eae8184611dfb565b905098975050505050505050565b600060a082019050611ed160008301886117d4565b611ede60208301876117d4565b8181036040830152611ef08186611ab0565b90508181036060830152611f048185611dfb565b90508181036080830152611f188184611dfb565b90509695505050505050565b60006020820190508181036000830152611f3e8184611dfb565b905092915050565b60008060008060808587031215611f6057611f5f611808565b5b6000611f6e87828801611829565b9450506020611f7f87828801611829565b9350506040611f9087828801611829565b9250506060611fa187828801611829565b91505092959194509250565b600060208284031215611fc357611fc2611808565b5b600082013567ffffffffffffffff811115611fe157611fe061180d565b5b611fed84828501611caf565b91505092915050565b600060408201905061200b60008301856117d4565b818103602083015261201d8184611dc2565b90509392505050565b7f4e487b7100000000000000000000000000000000000000000000000000000000600052603260045260246000fd5b7f4e487b7100000000000000000000000000000000000000000000000000000000600052602260045260246000fd5b6000600282049050600182168061209c57607f821691505b6020821081036120af576120ae612055565b5b50919050565b7f4e487b7100000000000000000000000000000000000000000000000000000000600052601160045260246000fd5b60006120ef826117ca565b91507fffffffffffffffffffffffffffffffffffffffffffffffffffffffffffffffff8203612121576121206120b5565b5b600182019050919050565b60008190508160005260206000209050919050565b60006020601f8301049050919050565b600082821b905092915050565b60006008830261218e7fffffffffffffffffffffffffffffffffffffffffffffffffffffffffffffffff82612151565b6121988683612151565b95508019841693508086168417925050509392505050565b6000819050919050565b60006121d56121d06121cb846117ca565b6121b0565b6117ca565b9050919050565b6000819050919050565b6121ef836121ba565b6122036121fb826121dc565b84845461215e565b825550505050565b600090565b61221861220b565b6122238184846121e6565b505050565b5b818110156122475761223c600082612210565b600181019050612229565b5050565b601f82111561228c5761225d8161212c565b61226684612141565b81016020851015612275578190505b61228961228185612141565b830182612228565b50505b505050565b600082821c905092915050565b60006122af60001984600802612291565b1980831691505092915050565b60006122c8838361229e565b9150826002028217905092915050565b6122e182611893565b67ffffffffffffffff8111156122fa576122f9611bb2565b5b6123048254612084565b61230f82828561224b565b600060209050601f8311600181146123425760008415612330578287015190505b61233a85826122bc565b8655506123a2565b601f1984166123508661212c565b60005b8281101561237857848901518255600182019150602085019450602081019050612353565b868310156123955784890151612391601f89168261229e565b8355505b6001600288020188555050505b50505050505056fea2646970667358221220558d5df5abdf3813dc1a164a0133de89f09761af274ac5e56a87e47df6a9e2fc64736f6c63430008110033",
  "immutableReferences": {},
  "source": "pragma solidity ^0.8.6;\n\ncontract purchaseContract {\n\n    struct Comic{\n        uint idcomic;\n        int price;\n        string name_comic;\n        string author;\n        uint publish_date;\n        int ISBN;\n        Client owner;\n    }\n\n    struct Purchase{\n        uint idpurchase;\n        uint purchase_date;\n        Comic item;\n        Client owner;\n        Client buyer;\n    }\n\n    struct Client{\n        uint idclient;\n        string name;\n    }\n    Comic[] public comics; \n    uint public nextidComic;\n    Purchase[] public purchases;\n    uint public nextIdPurchase;\n    Client[] public clients;\n    uint public nextIdClients;\n\n    function createComic (int _price, string memory _name_comic, string memory _author, uint  _publish_date, int  _isbn, uint _owner_id) public{\n        comics.push(Comic(nextidComic++, _price,_name_comic, _author, _publish_date, _isbn, clients[_owner_id]));\n    }\n\n    function getComic(uint id) public view returns (Comic memory) {\n        return comics[id];\n    }\n    \n    function createPurchase(uint _purchase_date, uint  _item_id, uint  _owner_id, uint  _buyer_id) public {\n        purchases.push(Purchase(nextIdPurchase++, _purchase_date, comics[_item_id], clients[_owner_id], clients[_buyer_id]));\n    }\n    \n    function createClient (string memory _name) public{\n        clients.push(Client(nextIdClients++, _name));\n    }\n\n    function getPurchase(uint id) public view returns (Purchase memory){\n        return purchases[id];\n    }\n\n    function getClient(uint id) public view returns (Client memory){\n        return clients[id];\n    }\n\n\n    //function\n    \n    \n}",
  "sourcePath": "D:\\Universidad\\Criptocomicnow\\contracts\\purchaseContract.sol",
  "compiler": {
    "name": "solc",
    "version": "0.8.17+commit.8df45f5f.Emscripten.clang"
  },
  "schemaVersion": "3.4.10",
  "updatedAt": "2022-11-20T03:37:46.449Z",
  "networkType": "ethereum",
  "devdoc": {
    "kind": "dev",
    "methods": {},
    "version": 1
  },
  "userdoc": {
    "kind": "user",
    "methods": {},
    "version": 1
  }
}